:020000040800F2
:10000000A0C80020D5010008450F00089F0B00087C
:10001000410F0008550500084130000800000000AD
:10002000000000000000000000000000792E000821
:10003000E90800080000000057110008692F0008B7
:10004000EF010008EF010008EF0100081D13000890
:10005000EF010008EF010008EF010008EF010008C0
:10006000EF010008EF010008EF010008EF010008B0
:10007000EF010008EF010008EF010008EF010008A0
:10008000EF010008EF010008EF010008EF01000890
:10009000EF010008EF010008EF010008EF01000880
:1000A000EF010008EF010008EF010008EF01000870
:1000B000EF010008EF010008EF010008EF01000860
:1000C000EF010008EF010008EF010008EF01000850
:1000D000EF010008BD2F0008EF010008EF01000844
:1000E000EF010008EF010008EF010008EF01000830
:1000F000EF010008EF010008EF010008EF01000820
:10010000EF01000815150008EF010008EF010008D5
:10011000EF010008EF010008EF010008EF010008FF
:10012000EF010008EF010008EF010008EF010008EF
:1001300000F002F800F03FF80AA090E8000C8244BA
:100140008344AAF10107DA4501D100F034F8AFF297
:10015000090EBAE80F0013F0010F18BFFB1A43F0A5
:100160000103184770FB020090FB0200103A24BF05
:1001700078C878C1FAD8520724BF30C830C144BF0C
:1001800004680C607047000000230024002500264E
:10019000103A28BF78C1FBD8520728BF30C148BFEA
:1001A0000B607047782900F07780002070471FB5FA
:1001B0001FBD10B510BD00F09DF91146FFF7F7FF08
:1001C00004F008FC00F0BBF903B4FFF7F2FF03BC36
:1001D00003F0C4F80948804709480047FEE7FEE7F6
:1001E000FEE7FEE7FEE7FEE7FEE7FEE7FEE7FEE7E7
:1001F00004480549054A064B704700006D2F00086A
:1002000031010008A0C20020A0C80020A0C4002026
:10021000A0C40020704700000FB4044910B503AA21
:10022000029800F007F910BC5DF814FB14000020E0
:100230002DE9F0410E460446002020622046E16888
:10024000884730B3252805D0D4E901219047206A9A
:10025000401CF2E7E168204600278847050018D0D7
:10026000A5F14100192802D820354FF40067324625
:10027000294620462760FFF795FF40B1012804D0AA
:10028000F61D26F007060836D8E7361DD6E72846BD
:10029000DAE7206ABDE8F08170B504460D462146D4
:1002A0001068AFF300802188090502D50F4A7A440F
:1002B00002E00E4A7A440E32002104F1240305E0E4
:1002C00000F00F060009965D5E54491C0028F7D126
:1002D00020780023000704D5702D02D009B1022335
:1002E00011322046BDE8704000F04BB8FAF9020028
:1002F000032A40F2308010F0030C00F0158011F852
:10030000013BBCF1020F624498BF11F801CB00F829
:10031000013B38BF11F8013BA2F1040298BF00F87D
:1003200001CB38BF00F8013B11F0030300F09480CB
:10033000083AC0F0088051F8043B083A51F804CB61
:10034000A0E80810F5E7121D5CBF51F8043B40F827
:10035000043BAFF30080D20724BF11F8013B11F832
:1003600001CB48BF11F8012B24BF00F8013B00F876
:1003700001CB48BF00F8012B7047704770477047AA
:1003800070472DE9F0470D4699469246044600F124
:1003900024080168880604D5E06921F01001216075
:1003A00000E00120A84201DD471B00E00027A16911
:1003B0007A1902EB0900081AA0612078C00602D45D
:1003C0002046AFF30080002608E0D4E901211AF8A6
:1003D00006009047206A401C761C20624E45F4DBE4
:1003E0002078C0060AD52046AFF3008006E0D4E9A5
:1003F000012130209047206A401C2062381EA7F15E
:100400000107F4DC07E0D4E9012118F80500904762
:10041000206A401C2062281EA5F10105F3DC20465D
:10042000AFF300802078000602D50220BDE8F087F7
:100430000120FBE7074B70B50D467B4400F043F805
:100440000446284600F052F810B14FF0FF3070BD5E
:10045000204670BD4F43000010B5203AC0F00B801D
:10046000B1E81850203AA0E81850B1E81850A0E8B8
:100470001850BFF4F5AF5FEA027C24BFB1E8185012
:10048000A0E8185044BF18C918C0BDE810405FEA82
:10049000827C24BF51F8043B40F8043B08BF7047FE
:1004A000D20728BF31F8023B48BF11F8012B28BF03
:1004B00020F8023B48BF00F8012B704701694A1C35
:1004C00002610878704700B58FB0CDE90131002195
:1004D000059105497944CDE9031011466846FFF7B7
:1004E000A7FE0FB000BD0000E5FFFFFF007B00F09E
:1004F00080007047754600F029F8AE460500694651
:10050000534620F00700854618B020B5FFF770FE6F
:10051000BDE820404FF000064FF000074FF0000804
:100520004FF0000B21F00701AC46ACE8C009ACE885
:10053000C009ACE8C009ACE8C0098D467047044664
:10054000AFF300802046FFF73FFE000000487047F1
:1005500040C2002000BFFEE770B500254FF4803494
:1005600004E0802000F0C2FF00B103E02000A4F10D
:100570000104F6D100BF0CB9032070BD40F2FF505A
:1005800000F06EFF2846F8E770B5044605E0154810
:10059000456B05F0450000B100E0F8E700BF04201E
:1005A00000F0A4FF20B1042000F05AFF032070BD2A
:1005B000012000F09BFF20B1012000F051FF01203D
:1005C000F5E708480069A04201D01020EFE740F2AB
:1005D000FF50044988630846406908210840C0B2BA
:1005E000E5E700000080014070B500264FF480353B
:1005F00005E01148446B04F0450000B103E0280019
:10060000A5F10105F5D100BF15B104F0040028B132
:100610000326042000F024FF304670BD012000F0C6
:1006200065FF18B10126012000F01AFF40F2FF50CB
:1006300000F016FF3046F0E70080014010B505E0FD
:100640000B48446B04F0450000B100E0F8E700BF40
:10065000042000F04BFF20B1042000F001FF032034
:1006600010BD40F2FF5000F0FBFE0020F8E7000054
:10067000008001402DE9F04105460E464FF000088C
:1006800005E01F48476B07F0450000B100E0F8E7C0
:1006900000BF042000F02AFF28B1042000F0E0FE93
:1006A0000320BDE8F081012000F020FF20B10120EF
:1006B00000F0D6FE0120F4E711480069A84201D0FD
:1006C0001020EEE740F2FF5000F0CAFE0C484469EB
:1006D00004F4604018B9200C30804046E1E704F48F
:1006E000005008B11320DCE704F4804008B110206A
:1006F000D7E704F4004008B10F20D2E74046D0E726
:100700000080014070B500264FF4803505E00F48A9
:10071000446B04F0450000B103E02800A5F1010599
:10072000F5D100BF15B104F0040028B10326042060
:1007300000F096FE304670BD04F0400018B100266F
:10074000402000F08DFE3046F5E7000000800140BB
:1007500021B1026842F00102026003E0026822F067
:100760000102026070470000016821F00101016090
:100770000021016041608160C160484A811A904255
:100780005BD012DC464AA0EB020190423AD007DC73
:1007900044490144D9B1142922D028297AD128E02A
:1007A000142938D0282975D13EE0B1F56C7F5BD093
:1007B00006DCB1F5627F49D0B1F5677F6AD14CE0C4
:1007C000B1F5717F57D0B1F5767F63D15BE03449E5
:1007D0004439496841F00F01314A443A51605AE0C6
:1007E0002F494439496841F0F0012D4A443A51609B
:1007F00051E02B494439496841F47061284A443A30
:10080000516048E026494439496841F47041244A1E
:10081000443A51603FE022494439496841F470212B
:100820001F4A443A516036E01D494439496841F451
:1008300070011B4A443A51602DE019494439496816
:1008400041F07061164A443A516024E01649096843
:1008500041F00F01144A11601DE01349096841F08D
:10086000F001114A116016E00F49096841F4706106
:100870000D4A11600FE00C49096841F470410A4AC1
:10088000116008E006E00849096841F47021064A51
:10089000116000E000BF00BF704700008000024010
:1008A00044000240F8FFFDBF0404024010B50022DE
:1008B000026847F6F0739A430C6A8B6823430C690D
:1008C00023434C6923438C692343CC6923434C6AFB
:1008D00023438C6A23431A430260CB6843600B684E
:1008E00083604B68C36010BD704700002DE9FC4178
:1008F00007460D46002600240020009001900820A5
:100900005B49086010204860402088600020C86073
:100910004FF480600861084600F01EFE1020FFF7CB
:1009200033FE044614B12046BDE8FC8151480088DE
:1009300000044F490860372048604020886000204C
:10094000C8604FF480600861084600F005FE37205B
:10095000FFF71AFE04460CB12046E5E74FF0FF30E2
:100960004549086008204860302088600220C8603F
:100970000020086101204861084600F08DFD00203C
:100980003B49086033204860402088600020C860F0
:100990004FF480600861084600F0DEFD3320FFF769
:1009A000F3FD04460CB12046BEE70CE04FF4001006
:1009B00000F09CFD38B100F0C9FD4DF82600761C12
:1009C000022E00D306E02D48406B40F22A61084019
:1009D0000028EBD000BF082000F088FD20B10820DF
:1009E00000F03EFD04209FE7022000F07FFD20B1D3
:1009F000022000F035FD022096E7202000F076FD71
:100A000020B1202000F02CFD06208DE74FF400706F
:100A100000F06CFD28B14FF4007000F021FD0720BC
:100A200082E740F2FF5000F01BFD0098000600999D
:100A300001F47F4140EA0120009901F47F0140EA7E
:100A40001120009940EA1160686001980006019940
:100A500001F47F4140EA0120019901F47F0140EA5D
:100A60001120019940EA1160286020465CE70000EF
:100A700088050020480000209C05002000800140DF
:100A80002DE9F04102460025002600200023002425
:100A9000002791F803C00CF00F0591F803C00CF08B
:100AA000100CBCF1000F03D091F802C04CEA050510
:100AB00091F800C0BCF1000F31D0146800202BE089
:100AC0004FF0010C0CFA00F3B1F800C00CEA030679
:100AD0009E4220D183004FF00F0C0CFA03F7BC4369
:100AE00005FA03FC4CEA040491F803C0BCF1280F9A
:100AF00006D14FF0010C0CFA00FCC2F814C00AE059
:100B000091F803C0BCF1480F05D14FF0010C0CFA6D
:100B100000FCC2F810C0401C0828D1D31460B1F802
:100B200000C0BCF1FF0F34DD546800202EE000F15E
:100B3000080C4FF0010808FA0CF3B1F800C00CEAF9
:100B400003069E4221D183004FF00F0C0CFA03F7ED
:100B5000BC4305FA03FC4CEA040491F803C0BCF161
:100B6000280F05D100F1080C08FA0CF8C2F814801F
:100B700091F803C0BCF1480F07D100F1080C4FF009
:100B8000010808FA0CF8C2F81080401C0828CED3DF
:100B90005460BDE8F081416170470161704700BF5A
:100BA000FEE770B502460024002500230020958A48
:100BB000138B1B0445EA030626F07F448C4201D1C7
:100BC000012000E0002070BD21B1028842F0010246
:100BD000028004E002884FF6FE731A4002807047DC
:100BE00000B585B00121480500F0C6FA01210820B2
:100BF00000F0E2FAC020ADF8000003208DF80200FA
:100C00001C208DF8030069461148FFF739FF114891
:100C100000F024F80020ADF804004BF6FF70ADF8AA
:100C200006003020ADF808004FF48060ADF80A00EF
:100C30000001ADF80C000848049001210548FFF7B9
:100C4000C3FF01A9034800F061F805B000BD000032
:100C5000000C014000540040801A060010B5044604
:100C60000E48204418B1B0F5806F14D109E001217D
:100C7000480500F091FA00214FF4001000F08CFAC2
:100C80000AE00121880500F087FA00214FF4800076
:100C900000F082FA00E000BF00BF10BD00ACFFBF53
:100CA00021B1028842F48072028004E002884FF68B
:100CB000FF631A400280704721B1028842F400723B
:100CC000028004E002884FF6FF531A40028070470A
:100CD0000CB50246002000230193009300920B0FF5
:100CE000019321F07F41019B1BB1009B14330093C2
:100CF00003E0090C009B18330093009B1B680B401A
:100D00000BB1012000E000200CBD00002DE9F043F4
:100D100085B004460D460026B1460427DFF8CC8096
:100D2000A6884FF6C0700640684600F055FADDF818
:100D300008802F48B8FBF0F01FFA80F946EA090650
:100D4000A68020884FF6FE710840208000262949A1
:100D5000E86888420CD8E8684000B8FBF0F087B239
:100D6000042F00DA04273E4309F10100208427E024
:100D700068884BF6FF71884206D1E86800EB4000B6
:100D8000B8FBF0F087B209E0E86800EBC00101EBC6
:100D90000010B8FBF0F087B247F48047C7F30B00B0
:100DA00008B947F0010747F4004006434FF4967036
:100DB00009FB00F04FF47A7190FBF1F0401C2084A5
:100DC000A683208840F00100208026884FF6F53069
:100DD00006402888E9880843064326802889A98890
:100DE0000843208105B0BDE8F083000000127A00BE
:100DF00040420F00A086010012B141F0010102E063
:100E00004FF6FE731940018270470182704700005F
:100E100070B504460D4600BF4FF400311C48FFF783
:100E200057FF0028F8D101211948FFF739FF00BF0B
:100E300018491748FFF7B5FE0028F9D0002278219D
:100E40001348FFF7D9FF00BF13491148FFF7A9FE68
:100E50000028F9D021460E48FFF7D7FF00BF0E4902
:100E6000891C0B48FFF79DFE0028F8D0294608484A
:100E7000FFF7CBFF00BF0849891C0548FFF791FE2B
:100E80000028F8D001210248FFF716FF70BD0000CE
:100E900000540040010003008200070072B6704752
:100EA00062B670471CB504460020019000902148AE
:100EB00000880004204908600D20486040208860B8
:100EC0000020C8604FF480600861084600F044FBD1
:100ED0001A48406B009002E01848406B0090009860
:100EE00000F045000028F7D0012000F0FFFA20B103
:100EF000012000F0B5FA01201CBD042000F0F6FA34
:100F000020B1042000F0ACFA0320F5E70B4800699B
:100F10000D2801D01020EFE740F2FF5000F0A0FABA
:100F20000648406901900198C0F3432020700020DA
:100F3000E2E7000048000020880500200080014012
:100F400000BFFEE77047000070B5002100230F22AC
:100F5000C47804B3154C246804F4E064C4F5E06478
:100F6000210AC1F10403CA40447804FA03F18478E9
:100F70001440214309010E4C0678A155047804F071
:100F80001F050124AC4005786D11AD0005F1E02589
:100F9000C5F8004109E0047804F01F050124AC40C5
:100FA000044D0678761145F8264070BD0CED00E042
:100FB00000E400E080E100E002490143024A1160E0
:100FC000704700000000FA050CED00E02DE9F05F2D
:100FD00006460F4690461C46DDF828A04FF0000B51
:100FE000E11704EB5171C910A4EBC10131B92046DE
:100FF000E11704EB5171C1F3C70506E02046E11784
:1010000004EB5171C910491CCDB23D4614E029468C
:10101000304600F08CF8B1460AE059460BF1010B5E
:101020001AF8010002F093F909F1010000F0FF093C
:10103000C145F2DB681CC5B2A542E8DBBDE8F09F04
:1010400070B50646002415E004F1B001C8B202F004
:1010500077F9002002F074F9102002F071F90025F0
:1010600004E0304602F073F9681CC5B2802DF8DB4D
:10107000601CC4B2082CE7DB70BD10B54FF47A7069
:1010800002F0FCFBAE2002F05BF9202002F058F9E0
:10109000102002F055F9B02002F052F9C82002F0F9
:1010A0004FF9002002F04CF9102002F049F94020DD
:1010B00002F046F9812002F043F9FF2002F040F9E6
:1010C000A12002F03DF9A62002F03AF9A82002F092
:1010D00037F93F2002F034F9A42002F031F9D3208F
:1010E00002F02EF9002002F02BF9D52002F028F9A9
:1010F000F02002F025F9D92002F022F9222002F096
:101100001FF9DA2002F01CF9122002F019F9DB2095
:1011100002F016F9202002F013F98D2002F010F9E8
:10112000142002F00DF9AF2002F00AF910BD70B5DD
:1011300004460D4605F1B001C8B202F001F91021D4
:1011400041EA141002F0FCF804F00F0141F0010034
:1011500002F0F6F870BD704729B1064A52690243A1
:10116000044B5A6104E0034A52698243014B5A61BD
:10117000704700000010024029B1064AD2690243BC
:10118000044BDA6104E0034AD2698243014BDA611D
:10119000704700000010024029B1064A126902435C
:1011A000044B1A6104E0034A12698243014B1A613D
:1011B000704700000010024029B1064A92690243BC
:1011C000044B9A6104E0034A92698243014B9A619D
:1011D000704700000010024030B5002100220024BA
:1011E00000232D4D6D6805F00C0121B1042905D0B7
:1011F000082923D105E0294D056022E0274D05602F
:101200001FE0254D6D6805F47012022505EB924232
:10121000214D6D6805F480341CB9214D554305609E
:101220000BE01D4D6D6805F400351DB11C4D554397
:10123000056002E0194D5543056002E0174D056059
:1012400000BF00BF144D6D6805F0F0010909154D90
:101250006B5C0568DD4045600F4D6D6805F4E0612D
:10126000090A104D6B5C4568DD4085600A4D6D686C
:1012700005F46051C90A0B4D6B5C4568DD40C560E3
:10128000054D6D6805F44041890B074D6B5CC568E1
:10129000B5FBF3F5056130BD0010024000127A0085
:1012A00000093D00730000208300002002490988E6
:1012B0008143014A11807047042800400348008898
:1012C00040F01000014908807047000004280040E9
:1012D000034800884FF6EF710840014908807047C5
:1012E00004280040002103480188001F008841EACB
:1012F000004070471C28004001460020064A128822
:101300000A40D0B2044A121F12880A4012B108B132
:10131000012000E0002070470428004010B50120A3
:10132000FFF7EAFF30B30120FFF7C0FF1248007853
:1013300010B1012810D107E020211048FFF72BFC45
:1013400001200D49087008E020210C48FFF725FC1A
:1013500000200949087000E000BF00BF00F020F83D
:10136000FFF7C0FF0649884204D1002000F00AF8C8
:1013700000F016F810BD00007200002000180140B7
:101380008051010000B50246FFF798FF100C034999
:101390000880091D0A80FFF79BFF00BD1828004048
:1013A00000BF0348008800F020000028F9D07047F3
:1013B000042800407CB505460024002000900190E0
:1013C00000260DB1022600E000262248406900F008
:1013D000007008B10E207CBD1F49098888B269469B
:1013E000FFF784FA04460CB12046F4E7019800F4B4
:1013F000802060B31848008800041849086037202E
:101400004860402088600020C8604FF48060086118
:10141000084600F0A1F83720FFF7B6F804460CB1F3
:101420002046D8E70D48066006200C494860402059
:1014300088600020C8604FF480600861084600F0B2
:101440008BF80620FFF7A0F804462046C3E72520C6
:10145000C1E700000080014048000020880500200E
:10146000014988637047000000800140014908601D
:1014700070470000A00030420146034A506820F047
:10148000FF00084350607047008001400149086038
:10149000704700008C05304200210A4B02685A62F6
:1014A00042689A621A46D16A21F0F701D0E9022314
:1014B0001A4303691A4343691A431143014AD1622B
:1014C0007047000000800140002006490860486025
:1014D0008860C86048628862C862034888630020E8
:1014E000C863704700800140FF07C000014600202C
:1014F000034A526B0A400AB1012000E00020704705
:10150000008001400248006800F0030070470000BE
:101510000080014010B500F053FC10BD00210A4AC4
:10152000516847F6FF6291430278C3681A438368A3
:101530001A4303691A4343681A4343691A43114320
:10154000014A516070470000008001400148006876
:1015500070470000808001400021094B02689A60BA
:101560001A46D1686FF30A01D0E901231A43C36810
:101570001A4303691A431143014AD16070470000BE
:10158000008001400549096821F00301034A116008
:101590001146096801431160704700000080014056
:1015A00001490860704700008080014070B58CB030
:1015B00006460C46154601210220FFF7CDFD1348D3
:1015C000FFF7D2F800211148FFF7C2F81048019048
:1015D00002960395A00804900020059080200690B4
:1015E0008000079080000890002009904FF4005080
:1015F0000A9000200B9001A90448FFF757F9002139
:101600000248FFF7A5F80CB070BD0000440402408A
:101610008080014070B504460025164800780328F4
:1016200001D1272070BD1348007838B111480078E7
:10163000012803D00F480078022818D1022C01D3CA
:101640002720EFE7E0B2FFF7B5FE05467DB90A486F
:10165000406820F4C0500849486008464068A1B27C
:1016600040EAC1200449486008464068486028466E
:10167000D8E700004400002000800140F0B501469A
:1016800000200022BE4B1B7881F85630BD4B1B88D2
:10169000A1F85430BC4B1B681A0E93090B70C2F3AF
:1016A00083034B7002F003038B70B74B1B68C3F3CB
:1016B0000742CA70B44B1B88C3F307220A71B24BAE
:1016C0001A784A715B681A0E1301CB80AE4B5B68C7
:1016D000C3F30742CB8843EA1213CB8002F00F0317
:1016E0000B72A94B9B88C3F30722D3094B72C2F339
:1016F00080138B72C2F34013CB72C2F300130B73CF
:1017000000234B739E4B1B783BB19D4B1B78012BE9
:1017100003D09B4B1B78032B4FD193071B0D0B6101
:10172000994B1A790B6943EA82030B61964B9B68CC
:101730001A0E0B6943EA92130B61C2F3C2030B75D5
:1017400002F007034B75904B9B68C3F307425309A4
:101750008B75C2F38203CB7593075B0F0B768A4BB5
:101760001B89C3F307220B7E43EAD2130B760B6966
:101770005B1C0024C1E912340B7E9B1C012404FA7B
:1017800003F3DC17D1E91256A5FB037C06FB03C368
:1017900005FB0433C1E912730C7A0123A3400B65E6
:1017A0000024D1E912650B6DA6FB037C05FB03C386
:1017B00006FB0433C1E912732EE0714B1B78022B38
:1017C0002AD1714B1A7993069B0A0B616E4B9B6869
:1017D0001A0E0B6943EA02230B616B4B9B68C3F340
:1017E00007420B6913430B61674B1B89C3F3072245
:1017F0000B695B1C4FF40074A3FB04464FF4806339
:101800000025A4FB037C06FB03C304FB0533C1E9ED
:1018100012734FF400730B65C2F3801301F8193F84
:1018200093065B0E4B70584B1A7A4B7843EAD213EF
:101830004B7002F07F038B70534BDB681A0ED30999
:10184000CB70C2F341130B71C2F382034B71930748
:101850001B0F8B714C4BDB68C3F307428B7943EA58
:1018600092138B71C2F34013CB7100230B7202F001
:1018700001034B72444B9B89C3F30722D3098B723C
:10188000C2F38013CB72C2F340130B73C2F3001385
:101890004B73C2F381038B7302F00303CB733A4B98
:1018A0001A7B53080B7401234B74384B1B681A0EB8
:1018B000CA741939354B1B68C3F307421402CC852F
:1018C000324B1B88C3F30722CB8D1343CB852F4BA1
:1018D0001A7814060C635B681A0E0B6B43EA024419
:1018E0000C632A4B5B68C3F307420B6B43EA022489
:1018F0000C63264B9B88C3F307220B6B13430B63CC
:10190000224B1A7934235A54204B9B681A0E3523E4
:101910005A541E4B9B68C3F3074214068C631B4B3F
:101920001B89C3F307228B6B43EA02448C63174B7A
:101930001A7A8B6B43EA02248C63144BDB681A0E11
:101940008B6B13438B63114BDB68C3F307423C2360
:101950005B5C43EA12143C235C5413071C0DCC87D8
:101960000A4B9B89C3F30722CB8F1343CB87074BCB
:101970001A7B540840235C54012441235C54F0BD7D
:101980004400002048000020B4050020C4050020C9
:101990007CB50025002401213020FFF70DFC01213A
:1019A00040F20240FFF7D8FB4FF4F850ADF80000CA
:1019B00018208DF8030003208DF802006946304896
:1019C000FFF75EF80420ADF8000018208DF8030042
:1019D00003208DF8020069462A48FFF751F880205D
:1019E000ADF8000048208DF8030003208DF80200B8
:1019F00069462448FFF744F8FFF766FD31208DF86B
:101A0000040000208DF805008DF8060001208DF8F7
:101A1000070001A8FFF798FA00F0E4F8044614B9AB
:101A200000F036F804461CB91748FFF727FE0446B5
:101A300034B91549B1F85410080400F04FFD0446BC
:101A40001CB90120FFF7E6FD04461CB10F480078E1
:101A5000032812D10C4890F8560020B10A4890F89B
:101A60005600012801D10A2500E004252846FFF789
:101A700003FD002000F04AFD044620467CBD000026
:101A80000010014000140140D8050020440000204F
:101A900038B5002401200090FFF734FD08B9252057
:101AA00038BD4A480078042821D000204849086001
:101AB00002204860C02088600020C8604FF4806029
:101AC00008610846FFF748FDFEF78EFD04460CB19D
:101AD0002046E5E73F4840693F4908603D48806946
:101AE00048603C48C06988603A48006AC860374826
:101AF000007858B135480078012807D0334800787D
:101B0000062803D031480078022816D10020304939
:101B1000086003204860402088600020C8604FF4BF
:101B2000806008610846FFF717FD69460320FEF74D
:101B3000A1FD04460CB12046B2E7244800780328F2
:101B400016D1BDF800000004214908600320486058
:101B5000402088600020C8604FF48060086108461B
:101B6000FFF7FAFCFEF740FD04460CB1204697E76C
:101B700016480078042827D0BDF8000017490860EF
:101B8000BDF8000000041249086009204860C02028
:101B900088600020C8604FF4806008610846FFF745
:101BA000DBFCFEF721FD04460CB1204678E709482E
:101BB00040690B4908600748806948600548C0696A
:101BC00088600448006AC860002069E7440000207B
:101BD0008805002000800140C40500204800002046
:101BE000B40500202DE9F047002700240026002539
:101BF000A046A146B2206C49087000204860886069
:101C0000C860086148610846FFF788FC0320FFF7B9
:101C1000B9FC0120FFF72AFC00BF12E00020634955
:101C2000086048608860C8604FF4806008610846BA
:101C3000FFF792FCFEF790FC044604B903E0781C21
:101C4000C7B24A2FEADB00BF14B12046BDE8F087D7
:101C50004FF4D570554908600820486040208860DE
:101C60000020C8604FF4806008610846FFF774FCEC
:101C7000FEF748FD044624B901204D4908704FF095
:101C8000804900204949086037204860402088602A
:101C90000020C8604FF4806008610846FFF75CFCD4
:101CA0003720FEF771FC0446002C4BD134E00020B5
:101CB0003E49086037204860402088600020C860A6
:101CC0004FF4806008610846FFF746FC3720FEF7B6
:101CD0005BFC04460CB12046B8E7364849EA0000F0
:101CE0003249086029204860402088600020C86090
:101CF0004FF4806008610846FFF72EFCFEF79EFC5B
:101D000004460CB12046A1E72B484669012080EA31
:101D1000D67080F001086D1CB8F1000F03D14FF6AA
:101D2000FF708542C3D34FF6FF70854202D31B2458
:101D300020468BE706F08040060032D002201C4986
:101D400008702EE01CE01D4818490860012048601A
:101D5000402088600020C8604FF480600861084619
:101D6000FFF7FAFBFEF76AFC04460CB120466DE76C
:101D700011484669012080EAD67080F001086D1C88
:101D8000B8F1000F03D14FF6FF708542DBD34FF659
:101D9000FF70854202D31B24204657E703200449E5
:101DA0000870204652E700007005002088050020DA
:101DB0004400002000001080008001400080FF806F
:101DC00010B54948406B00F4807070B34748007804
:101DD000012814D10020464908600C2048604020AA
:101DE00088600020C8604FF4806008610846FFF7F3
:101DF000B3FB0C20FEF7C8FB3E49087002E0002050
:101E00003C4908703848806B40F4807036498863DC
:101E10000846C06B4CF23A3188433349C86301200D
:101E2000354908703348007810BDFFE70220FFF7FE
:101E30005DFB68B10220FFF713FB2B48C06B4CF22F
:101E40003A3188432849C86302202A490870EBE7E1
:101E50000820FFF74BFB68B10820FFF701FB224881
:101E6000C06B4CF23A3188431F49C86304202149B2
:101E70000870D9E72020FFF739FB68B12020FFF771
:101E8000EFFA1948C06B4CF23A3188431649C863DF
:101E9000062018490870C7E71020FFF727FB68B134
:101EA0001020FFF7DDFA1048C06B4CF23A3188433E
:101EB0000D49C86305200F490870B5E74FF400705D
:101EC000FFF714FB70B14FF40070FFF7C9FA064832
:101ED000C06B4CF23A3188430349C8630720054977
:101EE0000870A1E700209FE7008001404D0000201E
:101EF000880500204E0000204F0000202DE9F84FFB
:101F00008146174698460A9C4FF0000AD3464D4634
:101F10004FF0FF36B9F1000F02D12620BDE8F88F4F
:101F200000208249C86282480078022805D1040254
:101F3000780A40EAC8574FEA682800207D4988603F
:101F40004860401E0860012048610020C8600861A8
:101F50000846FFF7A1FA7548406900F0007008B123
:101F60000E20DBE7002C21DDB4F5006F1EDC601EC7
:101F70002040D8B9204601F0B5FA00906E480460C0
:101F800010206D494860402088600020C8604FF4F0
:101F9000806008610846FFF7DFFA1020FEF7F4FAC8
:101FA0008246BAF1000F03D05046B7E72620B5E7C6
:101FB000009800015F498860084644604FF0FF3098
:101FC0000860012048610220C860002008610846BE
:101FD000FFF762FA584807601120574948604020CF
:101FE00088600020C8604FF4806008610846FFF7F1
:101FF000B3FA1120FEF7C8FA8246BAF1000F01D0F9
:1020000050468BE74D48007800285AD1FEF746FF2E
:1020100018E04FF40040FFF769FA78B14FF0000B79
:1020200006E042488030006845F82B000BF1010BB8
:10203000BBF1080FF5D32035414E03E00EB9042063
:102040006CE7761E3948406B40F22A610840002850
:10205000DFD00820FFF74AFA20B10820FFF700FA86
:1020600004205BE70220FFF741FA20B10220FFF7CE
:10207000F7F9022052E72020FFF738FA20B120209C
:10208000FFF7EEF9062049E74FF40070FFF72EFA4C
:1020900028B14FF40070FFF7E3F907203EE703E0B3
:1020A000FFF754FA28602D1D4FF40010FFF71EFAB9
:1020B0000028F5D1FEF7F4FE40F2FF50FFF7D0F90B
:1020C00031E01E48007801282DD1002221464846E3
:1020D000FFF76CFA00201B4908701B4908701B4968
:1020E00008701248C06B40F22A3108430F49C86398
:1020F0000120FFF7CBF900E0761E1548006800F4D8
:10210000005038B91148007820B90E48007808B955
:10211000002EF1D10EB9042000E70A48007810B172
:10212000084890F800A05046F8E600000080014002
:10213000440000209C050020880500204C00002061
:10214000FFFF7F004E0000204D0000204F000020C8
:10215000000402402DE9FE4F83460E4691460020C2
:102160000290002534462148007818B1680240EA00
:10217000D45564020BF00300F0B14FF0000A18E0F0
:102180004FF4007000904FEA4A20071945EBE073C6
:102190003A461748FFF7B2FE02904FF40072144916
:1021A0005846FEF7A5F80BF5007B0AF1010000F098
:1021B000FF0ACA45E4DB16E0B9F1010F09D14FF47B
:1021C000007022462B4600905846FFF797FE02907B
:1021D00009E04FF4007022462B46CDE9000958462D
:1021E00000F008F802900298BDE8FE8F440000203D
:1021F000300600202DE9FF5F17469846DDE90E46C0
:102200004FF00009CA464FF0FF35A9490098086011
:102210000020A849C862A8480078022805D1040215
:10222000780A40EAC8574FEA68280020A349886026
:102230004860401E0860012048610020C8600861B5
:102240000846FFF729F99B48406900F0007018B173
:102250000E2004B0BDE8F09F002C21DDB4F5006F26
:102260001EDC601E2040D8B9204601F03BF98346B1
:102270009348046010209249486040208860002004
:10228000C8604FF4806008610846FFF765F91020C8
:10229000FEF77AF98146B9F1000F03D04846D8E736
:1022A0002620D6E7012E70D906FB04F0B0F1007F9E
:1022B00001D32620CDE74FEA0B108049886006FB4A
:1022C00004F048604FF0FF300860012048610220B0
:1022D000C860002008610846FFF7DEF8784807600C
:1022E000122077494860402088600020C8604FF481
:1022F000806008610846FFF72FF91220FEF744F9C5
:102300008146B9F1000F01D04846A2E76D48007838
:1023100000287DD1FEF7C2FD1EE04FF40040FFF71C
:10232000E5F8A8B14FF0000A08E062488030006884
:102330005F49096841F82A000AF1010ABAF1080F59
:10234000F3D35B4800682030594908605E4D03E0D4
:102350000DB904207DE76D1E5648406B40F22A31CE
:1023600008400028D9D00820FFF7C0F820B1082085
:10237000FFF776F804206CE70220FFF7B7F828B1E2
:102380000220FFF76DF8022063E78EE02020FFF7C0
:10239000ADF820B12020FFF763F8062059E74FF48D
:1023A0000070FFF7A3F828B14FF40070FFF758F85A
:1023B00007204EE709E0FFF7C9F83D4909680860C2
:1023C0003B480068001D3A4908604FF40010FFF7D1
:1023D0008DF80028EFD14FF48070FFF787F820B315
:1023E0003548007838B134480078012803D03248A5
:1023F0000078022819D10020314908600C2048607B
:10240000402088600020C8604FF48060086100E0D0
:1024100012E00846FFF7A0F80C20FEF7B5F8814659
:10242000B9F1000F01D0484613E7FEF739FD40F23D
:10243000FF50FFF715F838E022480078012834D122
:1024400006FB04F100220098FFF7B0F800201F49B6
:10245000087001201E49087000201E4908701548A8
:10246000C06B40F22A3108431249C8630846C06A6B
:1024700040F00800C86200E06D1E1748006800F4D4
:10248000005008B9002DF7D10DB90420E1E600BFD6
:102490001048007818B90D4800780028F8D00B488B
:1024A000007810B1094890F800904846D1E6000045
:1024B0005000002000800140440000209C050020C6
:1024C000880500204C000020FFFF7F004E00002008
:1024D0004D0000204F0000200004024010B50446CB
:1024E00009480460072008494860402088600020AF
:1024F000C8604FF4806008610846FFF72DF8072098
:10250000FEF742F810BD00008805002001460020BB
:10251000012900D011B9024B197000E02620704744
:102520004C0000202DE9FF5F86B017469846149DA9
:1025300000260020059004900024814603908246E6
:1025400002900195DDF818B0DDF818B0BBF1000F6E
:1025500003D126200AB0BDE8F09F0020C449C8621C
:10256000C44988604860401E08600120486100201E
:10257000C86008610846FEF78FFFBD48406900F05B
:10258000007008B10E20E5E7BB480078022805D1AD
:102590000502780A40EAC8574FEA6828002D1FDD77
:1025A000B5F5006F1CDC681E2840C8B9284600F04D
:1025B00099FF0590B14805601020B049486040205F
:1025C00088600020C8604FF4806008610846FEF70C
:1025D000C3FF1020FDF7D8FF06461EB13046B9E70D
:1025E0002620B7E7A64800880004A44908600D200B
:1025F0004860402088600020C8604FF48060086117
:102600000846FEF7A9FF0D20FDF7BEFF06460EB1F6
:1026100030469FE79648406903904FF0FF341BE037
:10262000641E974800880004944908600D204860A3
:10263000402088600020C8604FF480600861084630
:10264000FEF78AFF0D20FDF79FFF06460EB13046CC
:1026500080E7874840690390039800F4807008B9C8
:10266000002CDDD10CB9292074E7844807601820BC
:1026700082494860402088600020C8604FF4806034
:1026800008610846FEF768FF1820FDF77DFF064643
:102690000EB130465EE700207A49087005980001C7
:1026A00074498860084645604FF0FF30086001209B
:1026B00048610020C86008610846FEF7EDFE4FF053
:1026C000FF347148007800287BD1FEF7E7FB43E038
:1026D0004FF48040FEF70AFFC8B30198A0EB090051
:1026E000202821D20198A0EB090000F0030020B9B6
:1026F0000198A0EB0900800804E00198A0EB090014
:102700008008401C02904FF0000A09E0DBF800004E
:10271000FEF746FF0AF1010A0BF1040B09F1040967
:1027200002988245F2D30FE04FF0000A05E05BF813
:102730002A00FEF735FF0AF1010ABAF1080FF6D3B5
:102740000BF1200B09F120096FF0404404E0FFE792
:102750000CB90420FEE6641E4548406B40F21A6145
:1027600008400028B4D00820FEF7C0FE20B10820A1
:10277000FEF776FE0420EDE60220FEF7B7FE20B15C
:102780000220FEF76DFE0220E4E61020FEF7AEFE0A
:1027900020B11020FEF764FE0520DBE64FF4007048
:1027A000FEF7A4FE30B14FF40070FEF759FE07208B
:1027B000D0E606E0FEF774FB40F2FF502C49886338
:1027C0003EE03148007801283AD110222946069887
:1027D000FEF7ECFE00202D4908702A4908702C49AC
:1027E00008702348C06B40F21A3108432049C8637F
:1027F0000846C06A40F00800C86200E0641E254830
:10280000006800F4005008B9002CF7D11CB9FFF79C
:10281000BFF804209EE64FF0FF3400E0641E1C4821
:10282000007820B91948007808B9002CF6D10CB905
:1028300004208FE61548007810B11448007889E626
:1028400040F2FF50FEF70CFE04A8FEF72BFB0646F5
:1028500003E004A8FEF726FB06463EB99DF81000EB
:102860000728F6D09DF810000628F2D0304671E611
:10287000008001409C0500204400002088050020C5
:10288000480000204D0000204C0000204E00002099
:102890004F000020000402402DE9FE4F0646894605
:1028A00092460020029000254C462148007818B13D
:1028B000680240EAD455640206F00300F0B14FF01C
:1028C000000B18E04FF4007231461A48FDF710FD76
:1028D0004FF4007000904FEA4B20071945EBE0736E
:1028E0003A461448FFF71EFE029006F500760BF1FB
:1028F000010000F0FF0BD345E4DB16E0BAF1010F55
:1029000009D14FF4007022462B4600903046FFF765
:1029100009FE029009E04FF4007022462B46CDE9F3
:10292000000A304600F008F802900298BDE8FE8FD9
:1029300044000020300600202DE9FF5F84B0DDE96F
:102940001247002600200390029000258046814611
:10295000019007FB04FBDDF810A0DDF810A0BAF130
:10296000000F03D1262008B0BDE8F09F0020D84911
:10297000C862D84988604860401E086001204861EC
:102980000020C86008610846FEF786FDD04840690F
:1029900000F0007008B10E20E5E7CF48007802286B
:1029A00008D10402DDE90601400A40EAC15049129B
:1029B000CDE90601002C1FDDB4F5006F1CDC601EA4
:1029C0002040C8B9204600F08DFD0390C348046044
:1029D0001020C2494860402088600020C8604FF441
:1029E000806008610846FEF7B7FD1020FDF7CCFDBA
:1029F00006461EB13046B6E72620B4E7012F6FD950
:102A000007FB04F0B0F1007F01D32620ABE7B2480A
:102A1000007838B1B0480078012803D0AE4800787B
:102A200002282DD1AE4800880004AC490860372048
:102A30004860402088600020C8604FF480600861D2
:102A40000846FEF789FD3720FDF79EFD06460EB1CC
:102A5000304688E7A14807601720A0494860402019
:102A600088600020C8604FF4806008610846FEF767
:102A700073FD1720FDF788FD06460EB1304672E75C
:102A80009649069808601920486040208860002018
:102A9000C8604FF4806008610846FEF75DFD1920AC
:102AA000FDF772FD06460EB130465CE70398000163
:102AB0008849886007FB04F048604FF0FF300860E9
:102AC000012048610020C86008610846FEF7E4FC68
:102AD00084480078002871D1451EFEF7DFF940E0F8
:102AE000DEE07B48406B00F48040A8B3ABEB08000D
:102AF00020281ED2ABEB080000F0030018B9ABEBA6
:102B00000800800803E0ABEB08008008401C01903F
:102B10004FF0000909E0DAF80000FEF741FD09F185
:102B200001090AF1040A08F1040801988145F2D369
:102B30000FE04FF0000905E05AF82900FEF730FDDC
:102B400009F10109B9F1080FF6D30AF1200A08F1D9
:102B500020086FF0404504E0FFE70DB9042002E7CC
:102B60006D1E5B48406B40F21A3108400028B8D017
:102B70000820FEF7BBFC20B10820FEF771FC042002
:102B8000F1E60220FEF7B2FC20B10220FEF768FC5D
:102B90000220E8E61020FEF7A9FC20B11020FEF785
:102BA0005FFC0520DFE64FF40070FEF79FFC30B1BC
:102BB0004FF40070FEF754FC0720D4E62CE04FF4ED
:102BC0008070FEF793FC00B34348007838B1424868
:102BD0000078012803D040480078022815D1002051
:102BE0003E4908600C204860402088600020C86092
:102BF0004FF4806008610846FEF7AEFC0C20FDF73C
:102C0000C3FC06460EB13046ADE6FEF749F940F288
:102C1000FF50FEF725FC43E03248007801283FD101
:102C200007FB04F110220498FEF7C0FC00202E4997
:102C3000087001202D49087000202D490870244893
:102C4000C06B40F21A3108432149C8630846C06A84
:102C500040F00800C8624FF0FF3500E06D1E2548C7
:102C6000006800F4005008B9002DF7D11DB9FEF737
:102C70008FFE042077E64FF0FF3500E06D1E1C4804
:102C8000007820B91848007808B9002DF6D10DB9A0
:102C9000042068E61448007810B11348007862E612
:102CA00040F2FF50FEF7DCFB02A8FEF7FBF80646F9
:102CB00003E002A8FEF7F6F806463EB99DF80800C4
:102CC0000728F6D09DF808000628F2D030464AE6DC
:102CD000008001409C050020440000208805002061
:102CE000480000204C0000204E0000204D00002035
:102CF0004F0000200004024000B587B001210820E9
:102D0000FEF75AFA01218803FEF736FA4FF46040C5
:102D1000ADF8180018208DF81B0003208DF81A005C
:102D200006A91848FDF7ACFE4FF460411548FDF7C1
:102D300034FF0020ADF804004FF48270ADF80600B7
:102D40000020ADF808000220ADF80A000120ADF81F
:102D50000C004002ADF80E003820ADF81000002045
:102D6000ADF812000720ADF8140001A9064800F0E4
:102D700065F80121044800F047F8FF2000F006F84C
:102D800007B000BD000C01400038004070B505469A
:102D9000002405E0601CC4B2C82C01DD002070BD19
:102DA00002210E4800F03CF80028F3D029460B48D9
:102DB00000F042F8002405E0601CC4B2C82C01DD1C
:102DC0000020ECE70121054800F02AF80028F3D0A4
:102DD000024800F02EF8C0B2E1E7000000380040E1
:102DE00010B50446074800884FF6C77108400549EA
:102DF000088008460088204308800121014800F02F
:102E000003F810BD0038004021B1028842F04002B2
:102E1000028004E002884FF6BF731A4002807047B8
:102E20000246002013890B400BB1012000E0002076
:102E300070470146888970478181704710B500222C
:102E4000028802F441520B884C8823438C88234328
:102E5000CC8823430C8923434C8923438C89234307
:102E6000CC8923431A430280838B4FF2FF742340A3
:102E700083830B8A038210BD704710B500F002F8FF
:102E800010BD00000CB5002001900090344800688F
:102E900040F480303249086000BF3148006800F4D7
:102EA000003000900198401C0190009818B90198DA
:102EB000B0F5A06FF1D12A48006800F4003010B1DD
:102EC0000120009001E0002000900098012844D1EA
:102ED0002448006840F01000224908600846006855
:102EE00020F0030008600846006840F00200086017
:102EF0001B4840681A4948600846406848600846D0
:102F0000406840F4806048600846406820F47C10C7
:102F100048600846406840F4E81048600846006889
:102F200040F08070086000BF0D48006800F000703D
:102F30000028F9D00A48406820F00300084948609A
:102F40000846406840F00200486000BF04484068FE
:102F500000F00C000828F9D101E000BFFEE70CBD2D
:102F600000100240002002407047000010B51048D9
:102F7000006840F001000E490860084640680D49AD
:102F800008400B494860084600680B49084008495A
:102F900008600846006820F4802008600846406801
:102FA00020F4FE00486000208860FFF766FF10BD37
:102FB000001002400000FFF8FFFFF6FE1D490988DF
:102FC00001F0200111B31B49091D0988C8B21A4933
:102FD000098801F40041C9B91749098801F4804101
:102FE00061B10A2803D00021134A118020E0124960
:102FF000098841F40041104A118019E00D2806D1DA
:103000000D49098841F480410B4A118010E00A49BA
:103010000988C1F30D01094A505407490988491C20
:10302000054A118011460988C72901DD0021118058
:10303000704700000038014018000020A80400205C
:1030400000BFFEE710B50446214610A0FDF7E4F8E6
:10305000240300F017F900F0AFF800200D490860D4
:103060002020FFF793FEC4F30740FFF78FFEC4F361
:103070000720FFF78BFEE0B2FFF788FE012006492C
:10308000C1F8B00100F098F810BD000066653A255F
:10309000780D0A00B08121420080214208B501214B
:1030A0000820FEF789F84FF48050ADF8000010209A
:1030B0008DF8030003208DF8020069460A48FDF7E9
:1030C000DFFC4FF480510848FDF767FD01200749F8
:1030D0000860FFF711FE0020FFF782FE00F032F8D3
:1030E0000349088008BD0000000C0140B081214266
:1030F000700000202DE9F04106460C4617460020DE
:103100000F4908600320FFF741FEC4F30740FFF7B3
:103110003DFEC4F30720FFF739FEE0B2FFF736FEAD
:10312000002505E0FF20FFF731FE7055681C85B2D1
:10313000BD42F7DB012002490860BDE8F0810000D4
:10314000B081214210B5002400200E490860902073
:10315000FFF71CFE0020FFF719FE0020FFF716FE08
:103160000020FFF713FEFF20FFF710FE44EA0024C3
:10317000FF20FFF70BFE044301200349C1F8B00113
:10318000204610BDB08121420080214210B50024AC
:103190000020074908600520FFF7F8FDFF20FFF732
:1031A000F5FD044601200349C1F8B001204610BDD9
:1031B000B08121420080214210B500BFFFF7E6FF39
:1031C00000F001000028F9D110BD00002DE9F05FEA
:1031D00081460F461646DFF8A8B04FEA1738C7F306
:1031E0000B0ACAF58054A64200DC344644E04FEA9C
:1031F00008314FF480525846FFF77CFF002508E065
:103200000AEB05001BF80000FF2800D003E0681C53
:1032100085B2A542F4DB00BFA54216DA4046FFF7AF
:1032200011FF002507E019F8050005EB0A010BF86E
:103230000100681C85B2A542F5DB4FEA08314FF466
:103240008052584600F02EF804E02246394648469F
:1032500000F028F8A64200D10FE008F101084FF075
:10326000000AA1442744301B86B2B6F5805F02DD18
:103270004FF4805400E03446B9E700BFBDE8F09F4A
:1032800040B2002010B50020044908600620FFF776
:103290007DFD01200249C1F8B00110BDB08121427D
:1032A000008021422DE9F04107460E461446F0B257
:1032B000C0F58075AC4200DC254612E02A46314656
:1032C000384600F013F8AC4200D10BE02F442E44F6
:1032D000601B84B2B4F5807F02DD4FF4807500E09E
:1032E0002546EBE700BFBDE8F08100002DE9F04185
:1032F00006460C461746FFF7C5FF00200F49086039
:103300000220FFF743FDC4F30740FFF73FFDC4F37E
:103310000720FFF73BFDE0B2FFF738FD002504E092
:10332000705DFFF733FD681C85B2BD42F8DB0120FC
:1033300002490860FFF740FFBDE8F081B0812142FB
:1033400010B5044621460020FDF762FD10BD10B502
:10335000044621464020FDF75BFD10BD014600BF3D
:103360007047000070B504460D4600202071401ED5
:10337000E0622946204601F0C3FB08B1032070BD7E
:1033800094F82E1294F82F0241EA00204AF65521B3
:10339000884201D00220F2E794F86900010694F80F
:1033A000680041EA004194F8670041EA002094F87F
:1033B0006610084320F07F400D49884201D100206B
:1033C000DDE794F88500010694F8840041EA0041A5
:1033D00094F8830041EA002094F88210084320F01A
:1033E0007F400349884201D10020C8E70120C6E799
:1033F00046415400024600E0521C107810B110788B
:103400008842F9D11078704770B503460D46586A66
:10341000021D680A1E68B678B0FBF6F400BF02CA47
:1034200009B9002070BD8C4200D202E0641A121D5E
:10343000F5E700BF10682044F4E70246891E506992
:10344000801E884201D8002070479378906A01FB63
:103450000300F9E72DE9F04705460C46207820F0F7
:103460004000401E00EB800101EBC00600274FF03A
:10347000010800BF1A48C05D205C1949C95D21449C
:10348000497840EA0129B8F1000F10D0484600F011
:103490000FFF8046FF2E07D23146761C35F811000B
:1034A00000F006FF404508D00020BDE8F0874FF649
:1034B000FF70814501D00020F7E7781C07460D28F2
:1034C000D8D3207800F0400038B1B8F1000F04D014
:1034D00035F8160008B10020E7E70120E5E7000015
:1034E000924F00080146002002E04910421CD0B271
:1034F0000129FAD170472DE9F04704468946B9F110
:10350000000F06D1E76817B16069B84215D80127E6
:1035100013E04946204601F0ADF90646022E02D2DC
:103520000120BDE8F087701C08B93046F9E76069F2
:10353000B04201D93046F4E74F463D4600BF6D1C0E
:103540006069A84204D80225BD4201D90020E8E7FD
:103550002946204601F08EF9064606B909E0701C9E
:1035600008B1012E01D13046DBE7BD42E7D1002092
:10357000D7E700BF6FF070422946204601F0D6FB26
:103580008046B8F1000F08D1B9F1000F05D02A46E6
:103590004946204601F0CAFB8046B8F1000F0BD126
:1035A000E5602069401C78B12069401E2061607987
:1035B00040F00100607107E0B8F1010F02D14FF057
:1035C000FF3000E0012005462846AAE72DE9F34F29
:1035D00083B0814604980068019002E00198401C85
:1035E0000190019800782F28F8D0019800785C2885
:1035F000F4D0D9F81CA000252F4600BF38467F1C08
:1036000001990C5C202C03DB2F2C01D05C2C00D109
:1036100032E0FF2D03D3062005B0BDE8F08FE4B201
:10362000812C13DBE0B2FE2810DC38467F1C0199A8
:103630000E5C06EB042084B2402E01DB7E2E05DDFD
:10364000802E01DBFE2E01DD0620E5E7012120466C
:1036500000F0E2FD04460CB90620DDE7802C06DA16
:10366000214671A0FFF7C6FE08B10620D4E7284620
:103670006D1C2AF81040C1E700BF0198C1190498D9
:103680000160202C01DA042000E00020804608E0E0
:10369000681E3AF81040202C02D02E2C00D002E0F8
:1036A0006D1E002DF4D100BF0DB90620B4E7002037
:1036B0002AF815000B222021D9F8180001F016FA7B
:1036C000002700E07F1C3AF817002028FAD03AF8CB
:1036D00017002E28F6D00FB148F0030800E06D1E49
:1036E00025B1681E3AF810002E28F8D100200646B1
:1036F00002904FF0080B00BF38467F1C3AF810408C
:1037000004B963E0202C03D02E2C04D1AF4202D0A8
:1037100048F00308F0E70298584501D2AF4214D1AF
:10372000BBF10B0F02D148F003084FE0AF4201D0CC
:1037300048F00308AF4200D948E02F460820029025
:103740004FF00B0BB006060ED6E7802C09DB2046A7
:1037500000F0AEFD0021009000F05EFD044648F050
:103760000208FF2C11DDABF101000299884204D858
:1037700048F00308CDF808B0BEE72212D9F8183097
:103780000298411C02911A5419E024B1214629A043
:10379000FFF730FE18B15F2448F003080FE0412C1A
:1037A00004DB5A2C02DC46F0020608E0612C06DB42
:1037B0007A2C04DC46F00106A4F1200084B2D9F88A
:1037C00018300298411C02911C5495E700BFD9F8AB
:1037D00018000078E52803D10520D9F818100870E2
:1037E000BBF1080F01D1B006060E06F00C000C2844
:1037F00003D006F00300032801D148F0020808F0C6
:10380000020058B906F00300012801D148F0100861
:1038100006F00C00042801D148F00808D9F8180077
:1038200080F80B800020F7E6222A3A3C3E3F7C7F5E
:10383000000000002B2C3B3D5B5D00004FF0E021C1
:10384000096921F004014FF0E0221161C21700EB79
:103850005272C2F3C702074B1A701946097801EB7E
:103860004102C2EBC1114FF6FF7202EAC101024AE6
:1038700011807047100000201200002001460D4A00
:1038800012884A434FF0E0235A6100229A610122D4
:103890001A6100BF4FF0E022106900F001021AB176
:1038A00000F48032002AF5D000224FF0E0231A61A4
:1038B0009A617047120000202DE9F04104460E463F
:1038C0000021204600F0B7F90546EDB9002700BFFA
:1038D0002169206801F014F9054605B113E060691B
:1038E0000078E52802D06069007820B9781C074686
:1038F000B04201D107E000270121204600F07FF807
:103900000546002DE4D000BF042D00D10725284630
:10391000BDE8F0812DE9F04704460021204600F083
:103920008AF9074617B13846BDE8F0874FF0FF091E
:10393000CA464FF6FF70208400BF2169206801F05D
:10394000DFF8074607B157E065692E780EB90427FE
:1039500052E0E87A00F03F08E52E05D008F00800B4
:1039600040B1B8F10F0F05D04FF0FF094FF6FF70CF
:1039700020843AE0B8F10F0F1CD1E06978B306F06B
:10398000400030B195F80DA026F04006B146E08821
:1039900020844E450AD1687B504507D12946E0690D
:1039A000FFF758FD10B1A9F1010000E0FF2000F081
:1039B000FF091AE0B9F1000F05D1284601F095FA88
:1039C000504500D118E0A069C07A00F0010038B974
:1039D0000B222846A16901F069F808B90CE004E05F
:1039E0004FF0FF094FF6FF7020840021204600F0C1
:1039F00006F80746002FA0D000BF384694E72DE90F
:103A0000F04104468846E088461CB0B208B12069FF
:103A100010B90420BDE8F08106F00F0000286BD13A
:103A20002069401C2061E06828B920680089B04204
:103A300062D80420EEE720688078401E00EA161065
:103A4000002859D1E168206800F014FF0546012DD7
:103A500001D80220DEE7681C08B90120DAE72068F7
:103A60004069A84242D8B8F1000F01D10420D1E743
:103A7000E1682068FFF73FFD05460DB90720C9E75B
:103A8000012D01D10220C5E7681C08B90120C1E75A
:103A9000206801F03AFA08B10120BBE7216801F182
:103AA00030004FF40072002101F020F82946206810
:103AB000FFF7C3FC2168C86200270EE001202168DF
:103AC0000871206801F021FA08B10120A2E72068FE
:103AD000C06A401C2168C8627F1C20688078B84298
:103AE000ECD82068C06AC01B2168C862E56029461E
:103AF0002068FFF7A2FC2061E6802068303006F0E5
:103B00000F0100EB41106061002083E72DE9FE4FBB
:103B10000446D4F81880D4F81C900C22414668461C
:103B200000F0D7FF00BF9DF80B0000F0010020B3AC
:103B3000002088F80B00E06101260CE033464A467D
:103B40006946404600F030FE2046FFF7E3FE05469A
:103B500005B102E0761C642EF0D300BF642E02D1C2
:103B60000720BDE8FE8F042D01D02846F9E79DF817
:103B70000B0088F80B00C4F81C909DF80B0000F0B7
:103B8000020060B1002600E0761C39F8160000281B
:103B9000FAD106F119000D21B0FBF1F700E0012781
:103BA00039462046FFF788FE054645BB781E0700CC
:103BB00025D0E088C11B204600F03DF80546F5B948
:103BC000A06901F092F9824600BF2169206800F0E7
:103BD00097FF054605B111E0FAB253466169E06905
:103BE00000F04CFD01202168087100212046FFF7FC
:103BF00006FF054615B9781E0700E6D100BFC5B916
:103C00002169206800F07CFF054695B9202200213B
:103C1000606900F06BFF0B22D4E9050100F059FF49
:103C2000A069C07A00F0180061690873012021685A
:103C30000871284695E72DE9F04104460E46E680D6
:103C4000A568012D03D020684069A84202D802204F
:103C5000BDE8F0812DB920680078032801D12068E3
:103C6000456A45B920680089B04201D80220EFE7D3
:103C70002068476A1EE0206880784FEA001812E04A
:103C80002946206800F0F6FD0546681C08B90120A9
:103C9000DEE7022D03D320684069A84201D8022044
:103CA000D6E7A6EB08064645EAD229462068FFF784
:103CB000C4FB0746E5600FB90220C9E707EB161001
:103CC00020612068303006F00F0100EB4110606188
:103CD0000020BDE770B50446002514B1012C0BD1BE
:103CE00003E0FDF755FE054608E0FFF7D7F94FF46E
:103CF000C0400549088001E0012500BF00BF0DB1AB
:103D0000012070BD0020FCE71A0000202DE9F041E1
:103D100007460E4615461C464FF0000814B904200D
:103D2000BDE8F08117B1012F22D112E0E2B229469D
:103D30003046FEF70FFA804607E0FDF729FEE2B2B3
:103D400029463046FEF706FA8046B8F1000FF4D156
:103D500011E009E069024FF400723046FFF7CAF93A
:103D60006D1C06F50076641E002CF3D1A04602E01F
:103D70004FF0010800BF00BFB8F1000F01D10020D3
:103D8000CEE70120CCE70146002070472DE9F04145
:103D900007460E4615461C464FF0000814B904208D
:103DA000BDE8F08117B1012F22D112E0E2B229461D
:103DB0003046FEF771FD804607E0FDF7E9FDE2B20F
:103DC00029463046FEF768FD8046B8F1000FF4D171
:103DD00011E009E069024FF400723046FFF7F6F98E
:103DE0006D1C06F50076641E002CF3D1A04602E09F
:103DF0004FF0010800BF00BFB8F1000F01D1002053
:103E0000CEE70120CCE7000010B500240EE04FF40F
:103E10000C71002000F06CFF184941F8240008469E
:103E200050F8240000B903E0601CC4B2022CEEDBA1
:103E300000BF4FF40A71002000F05AFF10490860DB
:103E40004FF40A71002000F053FF0E4908604FF450
:103E50000071002000F04CFF0B490860022C0AD1D1
:103E60000748006838B10748006820B10846006874
:103E700008B1002010BD0120FCE700002800002050
:103E8000300000203400002040000020F7B582B050
:103E900016460398019001A800F067FD0546002D25
:103EA00002DA0B2005B0F0BD0E4850F825400CB1E9
:103EB00000202070029810B1002002990870094972
:103EC000029841F82500029808B1012E01D0002087
:103ED000E8E7002203A902A800F006FA07463846E0
:103EE000E0E700001C0000202DE9F7478DB00546F3
:103EF00016461DB9092010B0BDE8F08700202860E3
:103F000006F01F0626F001020EA904A800F0ECF945
:103F10000746002F73D14FF4007000F0BBF98146C3
:103F2000B9F1000F01D11120E5E7CDF82C9001A8DF
:103F30000A9004A80E9900F0E1FB0746099C0FB90E
:103F400004B9062706F01C00002851D04FB1042FF9
:103F500003D104A8FFF7DAFD074646F00806099CDE
:103F600009E0E07A00F0110008B1072703E006F04D
:103F7000040000B10827002F4AD106F008000028ED
:103F800046D000F0F0FC804684F80E804FEA1821FD
:103F9000E1734FEA184121744FEA186161740020FF
:103FA000E072207700216177A177E17721460498BC
:103FB00000F000FD82460021204600F08EFF012027
:103FC00004990871BAF1000F22D00498D0F82C801F
:103FD0005146049800F04BFF0746CFB9AAF1010003
:103FE0000499C8604146049800F08AFD07460FE036
:103FF00077B9E07A00F0100010B1042708E031E052
:1040000006F0020020B1E07A00F0010000B10727BD
:1040100047B906F0080008B146F020060498C06AC7
:10402000E8612C62484600F03CF9DFB9AE7100202F
:10403000E8712146049800F0BDFC2861E07F01068C
:10404000A07F41EA0041607F41EA0020217F0843D0
:10405000E8600020A860A861686204982860286869
:10406000C088A880384646E72DE9FF4F83B0044654
:1040700015469A46DDF810B00020CAF80000204628
:1040800000F06CFF0290029818B1029807B0BDE8EA
:10409000F08FE07908B1E079F8E7A07900F001004D
:1040A00008B90720F2E7D4E90210401A00900098FE
:1040B000854200D9009DAAE02089C0F308000028AD
:1040C00076D120688078401EA16800EA512000F077
:1040D000FF09B9F1000F1FD1A06810B92069019044
:1040E0000CE0606A28B12046A168FFF78DF90190C5
:1040F00004E06169206800F0BDFB0190019802288E
:1041000002D20220E071C1E70198401C10B90120E1
:10411000E071BBE70198606161692068FFF78DF984
:10412000064616B90220E071B0E74E444FEA552822
:10413000B8F1000F29D009EB08002168897888427E
:1041400003D920688078A0EB0908216848784346A5
:1041500032465946FFF7DAFD10B10120E07195E7CC
:10416000A07900F0400068B1A069801B404509D2E9
:10417000A169891B0BEB41204FF4007204F1280167
:1041800000F0A7FC4FEA482737E0A069B04220D0F2
:10419000A07900F0400080B121684878012304F143
:1041A0002801A269FFF7F2FD18B10120E0716DE767
:1041B00010E0A07920F04000A07121684878012328
:1041C000324604F12801FFF7A1FD10B10120E07192
:1041D0005CE7A6612089C0F30800C0F50077AF4214
:1041E00000D92F462089C0F3080204F128001118D5
:1041F0003A46584600F06DFC00BFBB44A068384406
:10420000A060DAF800003844CAF80000ED1B002D69
:104210007FF452AF002039E72DE9F04102460F4606
:10422000802A01DA10462FE01FB1184B45F22056C4
:1042300002E0174B45F220560025102416E0A6EBAD
:10424000050C0CEBDC7805EB68014FEA410C33F808
:104250001CC0944500D10BE04FEA410C33F81CC060
:10426000944501DA0D4600E00E46641E002CE6D1AE
:1042700000BF34B14FF0010C0CEB410C33F81CC003
:1042800001E04FF0000C6046BDE8F08150A4010849
:10429000CC4F000810B504462146002000F028FD50
:1042A00010BD10B504462146002000F00FFD10BDE2
:1042B0000246002100E0491C094830F8110020B1F5
:1042C000074830F811009042F5D1054830F8110048
:1042D00018B1044830F8110070471046FCE70000A0
:1042E000D4F80208B4FA02082DE9F74F8AB0002189
:1042F0000A9801600B9800F038FB09900998002893
:1043000003DA0B200DB0BDE8F08FD849099851F8B9
:1043100020400CB90C20F5E70A980460207878B1A9
:104320006078FFF730FD814609F0010040B90C9834
:1043300020B109F0040008B10A20E3E70020E1E71A
:1043400000202070099860706078FFF7C3FC8146F8
:1043500009F0010008B10320D4E70C9820B109F05E
:10436000040008B10A20CDE7002739462046FEF7B1
:10437000F9FF0546012D01D09DBB32E000261AE071
:1043800004F5F77000EB061898F8040070B198F87F
:104390000B00010698F80A0041EA004198F809006C
:1043A00041EA002098F80810084300E0002002A924
:1043B00041F82600761C042EE2D3002606B1761EB4
:1043C00000BF02A850F8267027B139462046FEF7F4
:1043D000C9FF00E0022005461DB1701C06460428F6
:1043E000EFD3032D01D101208CE70DB10D2089E71A
:1043F0003B20015D94F83C0041EA0020B0F5007FCD
:1044000001D00D207EE74620015D94F8470041EA87
:10441000002ABAF1000F0ED194F85700010694F863
:10442000560041EA004194F8550041EA002094F812
:10443000541040EA010AC4F818A04020005DE07062
:10444000E078012804D0E078022801D00D2059E757
:10445000E0780AFB00FA3D20005DA070A07818B15A
:10446000A078411E084008B10D204BE74120015DB6
:1044700094F8420041EA00202081207A00F00F00E9
:1044800008B10D203EE74320015D94F8440041EA65
:1044900000200890089870B994F85300010694F829
:1044A000520041EA004194F8510041EA002094F89A
:1044B0005010084308903E20015D94F83F0041EA07
:1044C00000200190019808B90D201BE70198504485
:1044D000218900EB11100790DDE90701814201D22B
:1044E0000D200FE7DDE90710401AA178B0FBF1FBC2
:1044F000BBF1000F01D10D2004E7012540F6F67055
:10450000834500D302254FF6F670834500D303257B
:104510000BF102006061E76101983844206207985E
:104520003844A062032D16D1208908B10D20E9E698
:1045300094F85F00010694F85E0041EA004194F8A7
:104540005D0041EA002094F85C10084360626069F5
:104550008000069014E0208908B90D20D2E6206A78
:1045600050446062022D02D16069400007E0207D66
:1045700000F00100616901EB410100EB5100069080
:10458000A169069800F2FF10B1EB502F01D20D2067
:10459000B8E64FF0FF302061E06080206071032DAD
:1045A0005AD194F8601094F8610041EA0020012883
:1045B00052D1791C204600F0A3FAE8BB00206071BC
:1045C00094F82E1294F82F0241EA00204AF6552161
:1045D000884241D13320005D01063220005D41EA6E
:1045E00000413120005D41EA002094F8301008437A
:1045F0001F49884230D194F81702010694F8160238
:1046000041EA004194F8150241EA002094F814129E
:104610000843184988421FD194F81B02010694F8F8
:104620001A0241EA004194F8190241EA002094F884
:1046300018120843206100E00EE094F81F02010602
:1046400094F81E0241EA004194F81D0241EA00205C
:1046500094F81C120843E060257007480088401C4D
:1046600080B205490880E08000204BE61C00002055
:10467000525261417272416124000020F0B504463B
:104680001D464D730F27CF7200270F738F76BC46E0
:1046900081F81BC0571E07EB870C0CEBC7060027E1
:1046A00038463B4600BF4FF6FF77B84203D0374647
:1046B000761C34F81700DFF840C01CF803C001F87E
:1046C0000C000712DFF830C01CF803C08C448CF8D3
:1046D000017008B94FF6FF705F1C3B460D2FE2D307
:1046E0004FF6FF77B84202D034F816700FB942F097
:1046F00040020A70F0BD0000924F00082DE9F3411E
:104700000446019800782F2803D0019800785C288F
:1047100002D10198401C01900020A060019800780F
:10472000202807D200212046FFF785FA0546002001
:10473000606128E000BF01A92046FEF747FF05465B
:1047400005B11FE02046FFF7E5F80546A069C67AE7
:104750003DB1042D04D100BF06F0040000B90525C9
:1047600010E006F0040000B10CE06769F87A00F090
:10477000100008B9052505E03946206800F01AF94F
:10478000A060D8E700BF2846BDE8FC8100BF054A0D
:10479000128802F04002002AF9D0C2B2014B1B1D60
:1047A0001A807047003801402DE9FF4F83B007465B
:1047B00091461E460B223846049900F08AF9052ED0
:1047C00019D9B04612E039F802BB00250CE0584672
:1047D00068F35F0080464FEA6B0B08F4803010B13D
:1047E000234888EA00086D1C102DF0D3B9F80000AA
:1047F0000028E8D14646072500BF06F00F0000F16B
:10480000300ABAF1390F03DD0AF1070000F0FF0AA0
:1048100028466D1E01A901F800A03609002EECD132
:104820007E20485500240BE0385D812807DB385D89
:10483000FE2804DC681EA04200D106E0641C641C53
:10484000AC4202D2385D2028EED100BF00BF082D57
:1048500004D228466D1C01A9095C00E020212046F5
:10486000641C3954082CF2D307B0BDE8F08F000067
:10487000211001002DE9F04705460C46022C02D319
:104880006869A04202D84FF0010969E04FF0FF3992
:104890002878012804D002282ED003285CD13FE0DC
:1048A000274607EB5707286A00EB5721284600F0F8
:1048B00027F900B153E038467F1CC0F3080105F129
:1048C000300010F80180286A00EB5721284600F0DC
:1048D00017F900B143E0C7F3080105F13000405C6F
:1048E00048EA002804F0010010B14FEA181001E076
:1048F000C8F30B00814632E0286A00EB14212846F9
:1049000000F0FEF800B12AE040F2FF1000EA440196
:1049100005F130000E183078717840EA01291EE068
:10492000286A00EBD411284600F0EAF800B116E03E
:1049300040F2FF1000EA840105F130000E18F07813
:104940000006B17840EA0140717840EA01203178F0
:10495000084320F0704902E04FF0010900BF00BF9A
:104960004846BDE8F0870020704770B502464FF01A
:10497000FF301568E5B1116800E0491C0D78202D65
:1049800002D30D783A2DF8D10D783A2D0FD1146855
:1049900014F8015BA5F130030A2B07D28C4205D134
:1049A000022B03D218464D1C2946156070BD00200D
:1049B00000BFFBE710B502468C7ECB7E44EA0320A5
:1049C0001378032B05D10C7D4B7D44EA032340EA89
:1049D000034010BD08B54820FEF730FFFEF7C6FAC9
:1049E0004FF4A060FCF7E8FAFCF7FAF8FCF745FB97
:1049F00009E01AA0FBF710FC1CA0FBF70DFC4FF41C
:104A00007A70FEF73BFFFCF7C3FF0028F1D1FFF7F8
:104A1000FBF91A490122086819A1FFF737FA0122A8
:104A200018A11D48FFF760FA1C4908700020FCF728
:104A300007FB12E01A480068542100FB01F2194BF1
:104A400019491548FFF710FB1748009014480378E0
:104A5000692200211520FCF7B9FAEBE75344204303
:104A6000617264204572726F72210A00506C656138
:104A7000736520436865636B210A000028000020ED
:104A8000303A0000303A2F4261645F4170706C65CB
:104A90002E62696E000000008800002000000020E7
:104AA0000C00002004000020B0020020F0B50346F6
:104AB0001C460D46002000BF1600A2F1010207D0DF
:104AC00014F8017B15F801CBA7EB0C063000F3D0EE
:104AD000F0BD70B503460C4603E014F8015B03F823
:104AE000015B1500A2F10102F7D170BD30B503469C
:104AF00001E003F8011B1400A2F10102F9D130BD5D
:104B000070B504460D460026E06AA84210D0204643
:104B100000F0FBF906465EB9607801232A4604F1ED
:104B20003001FFF7F3F810B14FF0FF350126E562D1
:104B3000304670BD2DE9F04104460E461548005D33
:104B400038B9144818380168204688470120BDE864
:104B5000F081114850F82400B04219D90F4850F89C
:104B60002400B6FBF0F10B48083850F8240030F868
:104B70001120002508E000230648083850F82400DA
:104B80004F1920F817306D1C9542F4DB0020DEE74A
:104B90000220DCE76C000020A4FC02089CFC020858
:104BA00010B504460C4951F824104A000B4951F83D
:104BB0002400002100F0B0F8094951F824200749E9
:104BC000083951F82400002100F0A6F8012103481B
:104BD0000830015510BD000094FC0208640000205C
:104BE000A4FC02082DE9F04704460F460025A9461B
:104BF0002348005D20B922481838016820468847BC
:104C00001FB94FF0FF30BDE8F0871E4850F8240070
:104C1000B7FBF0F61B4850F82400B7FBF0F100FB9F
:104C2000117000B1761C184850F82400451E22E08F
:104C30001348083850F8240030F8150010B909F16D
:104C4000010901E04FF00009B14513D14FF0000810
:104C500009E00B48083850F8240005EB080220F85A
:104C6000126008F10108B045F3D3064850F824005B
:104C70006843C8E76D1E002DDADA4FF0FF30C2E757
:104C80006C0000209CFC020894FC020810B5014650
:104C90000023002207E00B4850F8210030F81200F2
:104CA00000B15B1C521C084850F821009042F2D819
:104CB00064205843044C54F82140B0FBF4F0C0B2D7
:104CC00010BD00006400002094FC020870B5054689
:104CD0000C4604B970BD054850F82500261A314627
:104CE0002846FFF727FF00BFF4E700005C00002024
:104CF00070B504460E4631462046FFF773FF054661
:104D0000681C08B9002070BD024850F824002844EF
:104D1000F9E700005C00002030B5034601E003F82D
:104D2000011B1400A2F10102F9D130BD2DE9F047B9
:104D300005460E461746022E02D36869B04202D8D5
:104D40004FF0020890E02878012804D0022844D0CF
:104D500003287DD159E0B14609EB5909286A00EBD7
:104D600059212846FFF7CCFE8046B8F1000F00D04D
:104D700079E0484609F10109C0F3080105F1300066
:104D80000C1806F0010020B1F9B2207861F31F1071
:104D900000E03846207001202871286A00EB592174
:104DA0002846FFF7ADFE8046B8F1000F00D05AE06C
:104DB000C9F3080105F130000C1806F0010010B12C
:104DC000C7F3071005E0207800F0F000C7F30321D7
:104DD000084320700120287145E0286A00EB162165
:104DE0002846FFF78DFE8046B8F1000F00D03AE06C
:104DF00040F2FF1000EA460105F130000C18277060
:104E0000380A6070012028712DE0286A00EBD61165
:104E10002846FFF775FE8046B8F1000F00D022E06B
:104E200040F2FF1000EA860105F130000C18E0782E
:104E30000006A17840EA0140617840EA012021782B
:104E4000084300F0704007432770380A607000E0A4
:104E500006E0380CA070380EE0700120287102E0E6
:104E60004FF0020800BF00BF4046BDE8F0872DE9C3
:104E7000F04104460E46022E02D36069B04201D8CA
:104E8000022727E0002721E031462046FFF7F2FC09
:104E9000054605B91DE0012D01D1022719E0681C66
:104EA00008B9012715E0002231462046FFF73EFFF2
:104EB000074607B10DE02069401C30B12069401C55
:104EC0002061607940F0010060712E466069B04257
:104ED000DAD800BF3846BDE8F08181760B0AC37688
:104EE0000A0C02750B0E4375704730B50146002061
:104EF0000B2200BF431003EBC01411F8015B6319D0
:104F0000D8B2531E1A00F5D130BD2DE9F041044648
:104F100000272079F8B1E56A607801232A4604F178
:104F20003001FEF733FF08B1012714E000202071A3
:104F3000206A281AA16988420DD2E67809E0A069A2
:104F40000544607801232A4604F13001FEF71EFF74
:104F5000761E022EF3D23846BDE8F08170B50546C4
:104F60002C464CB1206838B12068007820B1206808
:104F7000C088A188884201D0092070BD2168487886
:104F8000FEF701FF00F0010008B10320F5E7002063
:104F9000F3E701030507090E10121416181C1E0072
:104FA0000004000200018000400020001000080002
:104FB00004000200000000800040002000100008F3
:104FC000004000200010000800040002A400E8A136
:104FD000A700ECA1A800A7A1B000E3A1B100C0A167
:104FE000B700A4A1D700C1A1E000A4A8E100A2A835
:104FF000E800A8A8E900A6A8EA00BAA8EC00ACA8B6
:10500000ED00AAA8F200B0A8F300AEA8F700C2A174
:10501000F900B4A8FA00B2A8FC00B9A80101A1A83F
:105020001301A5A81B01A7A82B01A9A84401BDA88D
:105030004801BEA84D01ADA86B01B1A8CE01A3A83F
:10504000D001ABA8D201AFA8D401B3A8D601B5A8AE
:10505000D801B6A8DA01B7A8DC01B8A85102BBA8EC
:105060006102C0A8C702A6A1C902A5A1CA0240A8A0
:10507000CB0241A8D90242A89103A1A69203A2A6FD
:105080009303A3A69403A4A69503A5A69603A6A698
:105090009703A7A69803A8A69903A9A69A03AAA668
:1050A0009B03ABA69C03ACA69D03ADA69E03AEA638
:1050B0009F03AFA6A003B0A6A103B1A6A303B2A607
:1050C000A403B3A6A503B4A6A603B5A6A703B6A6D4
:1050D000A803B7A6A903B8A6B103C1A6B203C2A686
:1050E000B303C3A6B403C4A6B503C5A6B603C6A638
:1050F000B703C7A6B803C8A6B903C9A6BA03CAA608
:10510000BB03CBA6BC03CCA6BD03CDA6BE03CEA6D7
:10511000BF03CFA6C003D0A6C103D1A6C303D2A6A6
:10512000C403D3A6C503D4A6C603D5A6C703D6A673
:10513000C803D7A6C903D8A60104A7A71004A1A72E
:105140001104A2A71204A3A71304A4A71404A5A7DB
:105150001504A6A71604A8A71704A9A71804AAA7A8
:105160001904ABA71A04ACA71B04ADA71C04AEA777
:105170001D04AFA71E04B0A71F04B1A72004B2A747
:105180002104B3A72204B4A72304B5A72404B6A717
:105190002504B7A72604B8A72704B9A72804BAA7E7
:1051A0002904BBA72A04BCA72B04BDA72C04BEA7B7
:1051B0002D04BFA72E04C0A72F04C1A73004D1A778
:1051C0003104D2A73204D3A73304D4A73404D5A71B
:1051D0003504D6A73604D8A73704D9A73804DAA7E8
:1051E0003904DBA73A04DCA73B04DDA73C04DEA7B7
:1051F0003D04DFA73E04E0A73F04E1A74004E2A787
:105200004104E3A74204E4A74304E5A74404E6A756
:105210004504E7A74604E8A74704E9A74804EAA726
:105220004904EBA74A04ECA74B04EDA74C04EEA7F6
:105230004D04EFA74E04F0A74F04F1A75104D7A7E0
:1052400010205CA9132043A81420AAA1152044A86B
:105250001620ACA11820AEA11920AFA11C20B0A12E
:105260001D20B1A1252045A82620ADA13020EBA10D
:105270003220E4A13320E5A1352046A83B20F9A146
:10528000AC2080000321E6A1052147A8092148A8F8
:105290001621EDA1212159A96021F1A26121F2A2DB
:1052A0006221F3A26321F4A26421F5A26521F6A292
:1052B0006621F7A26721F8A26821F9A26921FAA262
:1052C0006A21FBA26B21FCA27021A1A27121A2A2E2
:1052D0007221A3A27321A4A27421A5A27521A6A262
:1052E0007621A7A27721A8A27821A9A27921AAA232
:1052F0009021FBA19121FCA19221FAA19321FDA172
:10530000962149A897214AA898214BA899214CA8F1
:105310000822CAA10F22C7A11122C6A115224DA899
:105320001A22CCA11D22D8A11E22DEA11F224EA826
:105330002022CFA123224FA82522CEA12722C4A11B
:105340002822C5A12922C9A12A22C8A12B22D2A183
:105350002E22D3A13422E0A13522DFA13622C3A11F
:105360003722CBA13D22D7A14822D6A14C22D5A1DC
:10537000522250A86022D9A16122D4A16422DCA1CA
:105380006522DDA1662251A8672252A86E22DAA109
:105390006F22DBA1952292A89922D1A1A522CDA1AD
:1053A000BF2253A81223D0A16024D9A26124DAA27B
:1053B0006224DBA26324DCA26424DDA26524DEA2D5
:1053C0006624DFA26724E0A26824E1A26924E2A2A5
:1053D0007424C5A27524C6A27624C7A27724C8A2C5
:1053E0007824C9A27924CAA27A24CBA27B24CCA295
:1053F0007C24CDA27D24CEA27E24CFA27F24D0A265
:105400008024D1A28124D2A28224D3A28324D4A234
:105410008424D5A28524D6A28624D7A28724D8A204
:105420008824B1A28924B2A28A24B3A28B24B4A274
:105430008C24B5A28D24B6A28E24B7A28F24B8A244
:105440009024B9A29124BAA29224BBA29324BCA214
:105450009424BDA29524BEA29624BFA29724C0A2E4
:105460009824C1A29924C2A29A24C3A29B24C4A2B4
:105470000025A4A90125A5A90225A6A90325A7A958
:105480000425A8A90525A9A90625AAA90725ABA928
:105490000825ACA90925ADA90A25AEA90B25AFA9F8
:1054A0000C25B0A90D25B1A90E25B2A90F25B3A9C8
:1054B0001025B4A91125B5A91225B6A91325B7A998
:1054C0001425B8A91525B9A91625BAA91725BBA968
:1054D0001825BCA91925BDA91A25BEA91B25BFA938
:1054E0001C25C0A91D25C1A91E25C2A91F25C3A908
:1054F0002025C4A92125C5A92225C6A92325C7A9D8
:105500002425C8A92525C9A92625CAA92725CBA9A7
:105510002825CCA92925CDA92A25CEA92B25CFA977
:105520002C25D0A92D25D1A92E25D2A92F25D3A947
:105530003025D4A93125D5A93225D6A93325D7A917
:105540003425D8A93525D9A93625DAA93725DBA9E7
:105550003825DCA93925DDA93A25DEA93B25DFA9B7
:105560003C25E0A93D25E1A93E25E2A93F25E3A987
:105570004025E4A94125E5A94225E6A94325E7A957
:105580004425E8A94525E9A94625EAA94725EBA927
:105590004825ECA94925EDA94A25EEA94B25EFA9F7
:1055A000502554A8512555A8522556A8532557A82B
:1055B000542558A8552559A856255AA857255BA8FB
:1055C00058255CA859255DA85A255EA85B255FA8CB
:1055D0005C2560A85D2561A85E2562A85F2563A89B
:1055E000602564A8612565A8622566A8632567A86B
:1055F000642568A8652569A866256AA867256BA83B
:1056000068256CA869256DA86A256EA86B256FA80A
:105610006C2570A86D2571A86E2572A86F2573A8DA
:10562000702574A8712575A8722576A8732577A8AA
:10563000812578A8822579A883257AA884257BA846
:1056400085257CA886257DA887257EA8882580A815
:10565000892581A88A2582A88B2583A88C2584A8E2
:105660008D2585A88E2586A88F2587A8932588A8AF
:10567000942589A895258AA8A025F6A1A125F5A19C
:10568000B225F8A1B325F7A1BC258BA8BD258CA810
:10569000C625F4A1C725F3A1CB25F0A1CE25F2A103
:1056A000CF25F1A1E2258DA8E3258EA8E4258FA8BA
:1056B000E52590A80526EFA10626EEA1092691A8CA
:1056C0004026E2A14226E1A10030A1A10130A2A121
:1056D0000230A3A10330A8A10530A9A1063065A915
:1056E000073096A90830B4A10930B5A10A30B6A197
:1056F0000B30B7A10C30B8A10D30B9A10E30BAA152
:105700000F30BBA11030BEA11130BFA1123093A841
:105710001330FEA11430B2A11530B3A11630BCA1D4
:105720001730BDA11D3094A81E3095A8213040A986
:10573000223041A9233042A9243043A9253044A96D
:10574000263045A9273046A9283047A9293048A93D
:105750004130A1A44230A2A44330A3A44430A4A465
:105760004530A5A44630A6A44730A7A44830A8A435
:105770004930A9A44A30AAA44B30ABA44C30ACA405
:105780004D30ADA44E30AEA44F30AFA45030B0A4D5
:105790005130B1A45230B2A45330B3A45430B4A4A5
:1057A0005530B5A45630B6A45730B7A45830B8A475
:1057B0005930B9A45A30BAA45B30BBA45C30BCA445
:1057C0005D30BDA45E30BEA45F30BFA46030C0A415
:1057D0006130C1A46230C2A46330C3A46430C4A4E5
:1057E0006530C5A46630C6A46730C7A46830C8A4B5
:1057F0006930C9A46A30CAA46B30CBA46C30CCA485
:105800006D30CDA46E30CEA46F30CFA47030D0A454
:105810007130D1A47230D2A47330D3A47430D4A424
:105820007530D5A47630D6A47730D7A47830D8A4F4
:105830007930D9A47A30DAA47B30DBA47C30DCA4C4
:105840007D30DDA47E30DEA47F30DFA48030E0A494
:105850008130E1A48230E2A48330E3A48430E4A464
:105860008530E5A48630E6A48730E7A48830E8A434
:105870008930E9A48A30EAA48B30EBA48C30ECA404
:105880008D30EDA48E30EEA48F30EFA49030F0A4D4
:105890009130F1A49230F2A49330F3A49B3061A92B
:1058A0009C3062A99D3066A99E3067A9A130A1A550
:1058B000A230A2A5A330A3A5A430A4A5A530A5A578
:1058C000A630A6A5A730A7A5A830A8A5A930A9A548
:1058D000AA30AAA5AB30ABA5AC30ACA5AD30ADA518
:1058E000AE30AEA5AF30AFA5B030B0A5B130B1A5E8
:1058F000B230B2A5B330B3A5B430B4A5B530B5A5B8
:10590000B630B6A5B730B7A5B830B8A5B930B9A587
:10591000BA30BAA5BB30BBA5BC30BCA5BD30BDA557
:10592000BE30BEA5BF30BFA5C030C0A5C130C1A527
:10593000C230C2A5C330C3A5C430C4A5C530C5A5F7
:10594000C630C6A5C730C7A5C830C8A5C930C9A5C7
:10595000CA30CAA5CB30CBA5CC30CCA5CD30CDA597
:10596000CE30CEA5CF30CFA5D030D0A5D130D1A567
:10597000D230D2A5D330D3A5D430D4A5D530D5A537
:10598000D630D6A5D730D7A5D830D8A5D930D9A507
:10599000DA30DAA5DB30DBA5DC30DCA5DD30DDA5D7
:1059A000DE30DEA5DF30DFA5E030E0A5E130E1A5A7
:1059B000E230E2A5E330E3A5E430E4A5E530E5A577
:1059C000E630E6A5E730E7A5E830E8A5E930E9A547
:1059D000EA30EAA5EB30EBA5EC30ECA5ED30EDA517
:1059E000EE30EEA5EF30EFA5F030F0A5F130F1A5E7
:1059F000F230F2A5F330F3A5F430F4A5F530F5A5B7
:105A0000F630F6A5FC3060A9FD3063A9FE3064A92C
:105A10000531C5A80631C6A80731C7A80831C8A8EE
:105A20000931C9A80A31CAA80B31CBA80C31CCA8BE
:105A30000D31CDA80E31CEA80F31CFA81031D0A88E
:105A40001131D1A81231D2A81331D3A81431D4A85E
:105A50001531D5A81631D6A81731D7A81831D8A82E
:105A60001931D9A81A31DAA81B31DBA81C31DCA8FE
:105A70001D31DDA81E31DEA81F31DFA82031E0A8CE
:105A80002131E1A82231E2A82331E3A82431E4A89E
:105A90002531E5A82631E6A82731E7A82831E8A86E
:105AA0002931E9A82032E5A22132E6A22232E7A27A
:105AB0002332E8A22432E9A22532EAA22632EBA25E
:105AC0002732ECA22832EDA22932EEA231325AA9B5
:105AD000A33249A98E334AA98F334BA99C334CA9D1
